{
  "contractName": "EventContract",
  "abi": [
    {
      "constant": true,
      "inputs": [],
      "name": "name",
      "outputs": [
        {
          "name": "",
          "type": "string"
        }
      ],
      "payable": false,
      "stateMutability": "view",
      "type": "function"
    },
    {
      "constant": true,
      "inputs": [],
      "name": "date",
      "outputs": [
        {
          "name": "",
          "type": "uint256"
        }
      ],
      "payable": false,
      "stateMutability": "view",
      "type": "function"
    },
    {
      "constant": true,
      "inputs": [],
      "name": "capacity",
      "outputs": [
        {
          "name": "",
          "type": "uint256"
        }
      ],
      "payable": false,
      "stateMutability": "view",
      "type": "function"
    },
    {
      "constant": true,
      "inputs": [
        {
          "name": "",
          "type": "uint256"
        }
      ],
      "name": "refundsLUT",
      "outputs": [
        {
          "name": "",
          "type": "address"
        }
      ],
      "payable": false,
      "stateMutability": "view",
      "type": "function"
    },
    {
      "constant": true,
      "inputs": [
        {
          "name": "",
          "type": "address"
        }
      ],
      "name": "applications",
      "outputs": [
        {
          "name": "",
          "type": "uint256"
        }
      ],
      "payable": false,
      "stateMutability": "view",
      "type": "function"
    },
    {
      "constant": true,
      "inputs": [],
      "name": "owner",
      "outputs": [
        {
          "name": "",
          "type": "address"
        }
      ],
      "payable": false,
      "stateMutability": "view",
      "type": "function"
    },
    {
      "constant": true,
      "inputs": [],
      "name": "place",
      "outputs": [
        {
          "name": "",
          "type": "string"
        }
      ],
      "payable": false,
      "stateMutability": "view",
      "type": "function"
    },
    {
      "constant": true,
      "inputs": [],
      "name": "isPublished",
      "outputs": [
        {
          "name": "",
          "type": "bool"
        }
      ],
      "payable": false,
      "stateMutability": "view",
      "type": "function"
    },
    {
      "constant": true,
      "inputs": [
        {
          "name": "",
          "type": "address"
        }
      ],
      "name": "refunds",
      "outputs": [
        {
          "name": "",
          "type": "uint256"
        }
      ],
      "payable": false,
      "stateMutability": "view",
      "type": "function"
    },
    {
      "constant": true,
      "inputs": [],
      "name": "numberOfApplicants",
      "outputs": [
        {
          "name": "",
          "type": "uint256"
        }
      ],
      "payable": false,
      "stateMutability": "view",
      "type": "function"
    },
    {
      "constant": true,
      "inputs": [],
      "name": "fee",
      "outputs": [
        {
          "name": "",
          "type": "uint256"
        }
      ],
      "payable": false,
      "stateMutability": "view",
      "type": "function"
    },
    {
      "inputs": [
        {
          "name": "_owner",
          "type": "address"
        },
        {
          "name": "_name",
          "type": "string"
        },
        {
          "name": "_place",
          "type": "string"
        },
        {
          "name": "_date",
          "type": "uint256"
        },
        {
          "name": "_capacity",
          "type": "uint256"
        },
        {
          "name": "_fee",
          "type": "uint256"
        },
        {
          "name": "_isPublished",
          "type": "bool"
        }
      ],
      "payable": false,
      "stateMutability": "nonpayable",
      "type": "constructor"
    },
    {
      "payable": true,
      "stateMutability": "payable",
      "type": "fallback"
    },
    {
      "constant": false,
      "inputs": [
        {
          "name": "_fee",
          "type": "uint256"
        }
      ],
      "name": "apply",
      "outputs": [],
      "payable": false,
      "stateMutability": "nonpayable",
      "type": "function"
    },
    {
      "constant": false,
      "inputs": [],
      "name": "cancel",
      "outputs": [],
      "payable": false,
      "stateMutability": "nonpayable",
      "type": "function"
    },
    {
      "constant": false,
      "inputs": [],
      "name": "publish",
      "outputs": [],
      "payable": false,
      "stateMutability": "nonpayable",
      "type": "function"
    },
    {
      "constant": false,
      "inputs": [],
      "name": "sendRefunds",
      "outputs": [],
      "payable": false,
      "stateMutability": "nonpayable",
      "type": "function"
    }
  ],
  "bytecode": "0x6080604052600060075534801561001557600080fd5b50604051620010d4380380620010d483398101806040528101908080519060200190929190805182019291906020018051820192919060200180519060200190929190805190602001909291908051906020019092919080519060200190929190505050866000806101000a81548173ffffffffffffffffffffffffffffffffffffffff021916908373ffffffffffffffffffffffffffffffffffffffff16021790555085600190805190602001906100cf929190610122565b5084600290805190602001906100e6929190610122565b5083600381905550826004819055508160058190555080600660006101000a81548160ff021916908315150217905550505050505050506101c7565b828054600181600116156101000203166002900490600052602060002090601f016020900481019282601f1061016357805160ff1916838001178555610191565b82800160010185558215610191579182015b82811115610190578251825591602001919060010190610175565b5b50905061019e91906101a2565b5090565b6101c491905b808211156101c05760008160009055506001016101a8565b5090565b90565b610efd80620001d76000396000f3006080604052600436106100db576000357c0100000000000000000000000000000000000000000000000000000000900463ffffffff16806306fdde03146100e6578063075d478214610176578063141b71691461018d578063323046b1146101a45780635cfc1a51146101cf57806378cdbbbb146101fa5780637c3bf42d146102675780638da5cb5b146102be57806393cca91814610315578063b94a4d0d146103a5578063bc3da535146103d4578063cad7ca401461042b578063d5cc5a5114610456578063ddca3f4314610483578063ea8a1af0146104ae575b6100e4346104c5565b005b3480156100f257600080fd5b506100fb6107c7565b6040518080602001828103825283818151815260200191508051906020019080838360005b8381101561013b578082015181840152602081019050610120565b50505050905090810190601f1680156101685780820380516001836020036101000a031916815260200191505b509250505060405180910390f35b34801561018257600080fd5b5061018b610865565b005b34801561019957600080fd5b506101a26109bf565b005b3480156101b057600080fd5b506101b9610b6b565b6040518082815260200191505060405180910390f35b3480156101db57600080fd5b506101e4610b71565b6040518082815260200191505060405180910390f35b34801561020657600080fd5b5061022560048036038101908080359060200190929190505050610b77565b604051808273ffffffffffffffffffffffffffffffffffffffff1673ffffffffffffffffffffffffffffffffffffffff16815260200191505060405180910390f35b34801561027357600080fd5b506102a8600480360381019080803573ffffffffffffffffffffffffffffffffffffffff169060200190929190505050610bb5565b6040518082815260200191505060405180910390f35b3480156102ca57600080fd5b506102d3610bcd565b604051808273ffffffffffffffffffffffffffffffffffffffff1673ffffffffffffffffffffffffffffffffffffffff16815260200191505060405180910390f35b34801561032157600080fd5b5061032a610bf2565b6040518080602001828103825283818151815260200191508051906020019080838360005b8381101561036a57808201518184015260208101905061034f565b50505050905090810190601f1680156103975780820380516001836020036101000a031916815260200191505b509250505060405180910390f35b3480156103b157600080fd5b506103ba610c90565b604051808215151515815260200191505060405180910390f35b3480156103e057600080fd5b50610415600480360381019080803573ffffffffffffffffffffffffffffffffffffffff169060200190929190505050610ca3565b6040518082815260200191505060405180910390f35b34801561043757600080fd5b50610440610cbb565b6040518082815260200191505060405180910390f35b34801561046257600080fd5b50610481600480360381019080803590602001909291905050506104c5565b005b34801561048f57600080fd5b50610498610cc1565b6040518082815260200191505060405180910390f35b3480156104ba57600080fd5b506104c3610cc7565b005b6003544210151561053e576040517f08c379a000000000000000000000000000000000000000000000000000000000815260040180806020018281038252601f8152602001807f54686973206576656e742068617320616c726561647920737461727465642e0081525060200191505060405180910390fd5b60055481101515156105de576040517f08c379a00000000000000000000000000000000000000000000000000000000081526004018080602001828103825260268152602001807f4665652073686f756c64206265206c6172676572207468616e206d696e696e7581526020017f6d206665652e000000000000000000000000000000000000000000000000000081525060400191505060405180910390fd5b60011515600660009054906101000a900460ff161515141515610669576040517f08c379a00000000000000000000000000000000000000000000000000000000081526004018080602001828103825260208152602001807f54686973206576656e74206973206e6f74207075626c6973686564207965742e81525060200191505060405180910390fd5b6000600860003373ffffffffffffffffffffffffffffffffffffffff1673ffffffffffffffffffffffffffffffffffffffff16815260200190815260200160002054141561073f5760045460075410151561072c576040517f08c379a00000000000000000000000000000000000000000000000000000000081526004018080602001828103825260138152602001807f54686973206576656e742069732066756c6c2e0000000000000000000000000081525060200191505060405180910390fd5b6007600081548092919060010191905055505b80600860003373ffffffffffffffffffffffffffffffffffffffff1673ffffffffffffffffffffffffffffffffffffffff1681526020019081526020016000205401600860003373ffffffffffffffffffffffffffffffffffffffff1673ffffffffffffffffffffffffffffffffffffffff1681526020019081526020016000208190555050565b60018054600181600116156101000203166002900480601f01602080910402602001604051908101604052809291908181526020018280546001816001161561010002031660029004801561085d5780601f106108325761010080835404028352916020019161085d565b820191906000526020600020905b81548152906001019060200180831161084057829003601f168201915b505050505081565b6000809054906101000a900473ffffffffffffffffffffffffffffffffffffffff1673ffffffffffffffffffffffffffffffffffffffff163373ffffffffffffffffffffffffffffffffffffffff16141515610929576040517f08c379a00000000000000000000000000000000000000000000000000000000081526004018080602001828103825260158152602001807f546869732069732061646d696e206d6574686f642e000000000000000000000081525060200191505060405180910390fd5b600354421015156109a2576040517f08c379a000000000000000000000000000000000000000000000000000000000815260040180806020018281038252601f8152602001807f54686973206576656e742068617320616c726561647920737461727465642e0081525060200191505060405180910390fd5b6001600660006101000a81548160ff021916908315150217905550565b6000806000809054906101000a900473ffffffffffffffffffffffffffffffffffffffff1673ffffffffffffffffffffffffffffffffffffffff163373ffffffffffffffffffffffffffffffffffffffff16141515610a86576040517f08c379a00000000000000000000000000000000000000000000000000000000081526004018080602001828103825260158152602001807f546869732069732061646d696e206d6574686f642e000000000000000000000081525060200191505060405180910390fd5b600091505b600a80549050821015610b6757600a82815481101515610aa757fe5b9060005260206000200160009054906101000a900473ffffffffffffffffffffffffffffffffffffffff1690508073ffffffffffffffffffffffffffffffffffffffff166108fc600960008473ffffffffffffffffffffffffffffffffffffffff1673ffffffffffffffffffffffffffffffffffffffff168152602001908152602001600020549081150290604051600060405180830381858888f19350505050158015610b59573d6000803e3d6000fd5b508180600101925050610a8b565b5050565b60035481565b60045481565b600a81815481101515610b8657fe5b906000526020600020016000915054906101000a900473ffffffffffffffffffffffffffffffffffffffff1681565b60086020528060005260406000206000915090505481565b6000809054906101000a900473ffffffffffffffffffffffffffffffffffffffff1681565b60028054600181600116156101000203166002900480601f016020809104026020016040519081016040528092919081815260200182805460018160011615610100020316600290048015610c885780601f10610c5d57610100808354040283529160200191610c88565b820191906000526020600020905b815481529060010190602001808311610c6b57829003601f168201915b505050505081565b600660009054906101000a900460ff1681565b60096020528060005260406000206000915090505481565b60075481565b60055481565b60035442101515610d40576040517f08c379a000000000000000000000000000000000000000000000000000000000815260040180806020018281038252601f8152602001807f54686973206576656e742068617320616c726561647920737461727465642e0081525060200191505060405180910390fd5b6000600860003373ffffffffffffffffffffffffffffffffffffffff1673ffffffffffffffffffffffffffffffffffffffff168152602001908152602001600020541415610d8d57610ecf565b600860003373ffffffffffffffffffffffffffffffffffffffff1673ffffffffffffffffffffffffffffffffffffffff16815260200190815260200160002054600960003373ffffffffffffffffffffffffffffffffffffffff1673ffffffffffffffffffffffffffffffffffffffff16815260200190815260200160002081905550600a3390806001815401808255809150509060018203906000526020600020016000909192909190916101000a81548173ffffffffffffffffffffffffffffffffffffffff021916908373ffffffffffffffffffffffffffffffffffffffff160217905550506000600860003373ffffffffffffffffffffffffffffffffffffffff1673ffffffffffffffffffffffffffffffffffffffff16815260200190815260200160002081905550600760008154809291906001900391905055505b5600a165627a7a72305820855615006c8c9daa6a86515851c8003319f174a4faccc920de9aa4f02ae013300029",
  "source": "pragma solidity ^0.4.24;\n\ncontract EventContract {\n\n  address public owner;\n  string public name;\n  string public place;\n  uint public date;\n  uint public capacity;\n  uint public fee;\n  bool public isPublished;\n  uint public numberOfApplicants = 0;\n  mapping (address => uint) public applications;\n  mapping (address => uint) public refunds;\n  address[] public refundsLUT;\n\n  constructor(\n    address _owner,\n    string _name,\n    string _place,\n    uint _date,\n    uint _capacity,\n    uint _fee,\n    bool _isPublished\n  ) public {\n    owner = _owner;\n    name = _name;\n    place = _place;\n    date = _date;\n    capacity = _capacity;\n    fee = _fee;\n    isPublished = _isPublished;\n  }\n\n  modifier onlyBeforeStart {\n    require(block.timestamp < date, \"This event has already started.\");\n    _;\n  }\n\n  modifier onlyOwner {\n    require(msg.sender == owner, \"This is admin method.\");\n    _;\n  }\n\n  function () public payable {\n    apply(msg.value);\n  }\n\n  function apply(uint _fee) public onlyBeforeStart {\n    require(_fee >= fee, \"Fee should be larger than mininum fee.\");\n    require(isPublished == true, \"This event is not published yet.\");\n    if (applications[msg.sender] == 0) {\n      require(numberOfApplicants < capacity, \"This event is full.\");\n      numberOfApplicants++;\n    }\n    applications[msg.sender] = applications[msg.sender] + _fee;\n  }\n\n  function cancel() public onlyBeforeStart {\n    if (applications[msg.sender] == 0) return;\n    refunds[msg.sender] = applications[msg.sender];\n    refundsLUT.push(msg.sender);\n    applications[msg.sender] = 0;\n    numberOfApplicants--;\n  }\n\n  function publish() public onlyOwner onlyBeforeStart {\n    isPublished = true;\n  }\n\n  function sendRefunds() public onlyOwner {\n    for (uint i = 0; i < refundsLUT.length; i++) {\n      address user = refundsLUT[i];\n      user.transfer(refunds[user]);\n    }\n  }\n}\n",
  "sourcePath": "/Users/ngo275/work/kadokawa/event-dapp/contracts/EventContract.sol",
  "compiler": {
    "name": "solc",
    "version": "0.4.24+commit.e67f0147.Emscripten.clang"
  },
  "schemaVersion": "2.0.1",
  "updatedAt": "2018-10-06T09:27:05.212Z"
}